:020000040800F2
:1000000000500020510100089101000891010008F2
:100010009101000891010008910100080000000012
:100020000000000000000000000000009101000836
:10003000910100080000000091010008ED00000897
:100040009101000891010008910100089101000848
:100050009101000891010008910100089101000838
:100060009101000891010008910100089101000828
:100070009101000891010008910100089101000818
:100080009101000891010008910100089101000808
:1000900091010008910100089101000891010008F8
:1000A00091010008910100089101000891010008E8
:1000B00091010008910100089101000891010008D8
:1000C00091010008910100089101000891010008C8
:1000D00091010008910100089101000891010008B8
:0C00E00091010008910100089101000846
:1000EC00024A136801331360704700BF0000002000
:1000FC00114A41F63F71936943F0100393610F4B22
:10010C005A6822F470025A605A6842F400125A601B
:10011C004FF0E022516100219161072111610849E2
:10012C00DA6882F40052DA600A6802F5FA7208683A
:10013C008242FCD8F4E700BF0010024000100140DE
:10014C00000000200A480B490B4A914204D250F897
:10015C00043B41F8043BF8E70849094A0023914263
:10016C0002D241F8043BFAE7FFF7C2FFFEE70000BA
:10017C009401000800000020000000200000002076
:08018C0004000020FEE7000062
:04000005080001519D
:00000001FF
